:4000000000400020110000006D0300006D03000010B500F0B3F90000F7B572B680220021D2003E4801F021FE80220021D2003C4801F01BFE0022FF2511003A4E1436394B3F
:40004000D0584B000700284009184800013001333018AF43F31801900198834207D0581E0078C0190400187802332070F4E70432142AE4D1EE2100243C202B4B03251960FB
:400080002A4B2B491C602B4B2B4E1C600B7883431343DBB20B70294926380B7803430B702421274B02301D60264B1960264B1A601223336001F05CFA244A254B25491A60A5
:4000C000FE22254B12021A60244B0120196024490A608021234A89001A60234A1160234A1A608022224B12061A604022214B1C60214B1A60214B01321A60214B01321A6029
:40010000204B1C60112333601F4B1D601F4B1D601F4B1C6000F00CF9F7BDC04600300F4000400F40801C0000000402400003024001700F40080304403000104000700F402B
:400140000004044008040440180404400600008004010B4040FF008000030140000001400403014041FF00800803014042FF008008010B4000010B401C0101401801014000
:40018000080101400C020B403000304030003140000E3F4010B5064C2378002B07D1054B002B02D0044800E000BF0123237010BD48010020000000007C1C0000084B10B544
:4001C000002B03D00749084800E000BF07480368002B00D110BD064B002BFBD09847F9E7000000004C0100207C1C0000C00000200000000010B5042001F054FB0122014BBC
:400200001A7010BD6401002010B501F08EFB084C606000F09FFE830605D400F02FFE01F0FFF900F02FFE6068C0B201F082FB10BD64010020002313B50193FA23064C9B00FA
:40024000206801A94009584301F014FA002801D1019B236013BDC046C400002010B50F4801F056F8C8230E4C5B012360FFF7E2FF0C4B21680020996001F0F0FA012100202A
:4002800001F0A4FA0121002001F0B6FA082001F033FB012001F0C6FA10BDC046F5010000C40000206401002070B562B600F0D8FD1D4A0021042000F05FFE00F0BBF80021C2
:4002C000080000F093FCFFF7C9FF0124601E0328FDD801F0FFFB020A1B2000F013FA0028F4D100F0BDFB0224F0E701F01EFB0F4D686000F007FA002802D001F083F900E0EF
:4003000003246868C0B201F014FBDFE7002000F0A7F80424DAE7FFF777FF044B1A78002AD4D000221A70D0E7D8010020640100200B4A1368002803D0802109060B4301E050
:400340005B005B081360074A1368002803D0802189040B4301E004490B4013607047C04680033A4008010B40FFFFFFFD10B501F047FC03680C2B00D1FEE7FEE7F8B500250D
:400380000F49104B01394A1C14D000221F685C689E68A018B24203D0B858A0500432F8E70200DE68141AA64201D020C2FAE710330139E8E701F02AFCFFF776FFFEE7C04654
:4003C00001000000601D000001210D4A70B5136814008B43136000230A4D0B4E0B489A002900032B00D8B15801338150302BF6D1FFF712FE012223681343236070BDC04632
:40040000000010406D030000000000000000002010B5074C2378002B05D100F0D7F800F0F3F80123237000F035F800F039FA10BD7001002010B5FFF7EBFF041E06D100F0AB
:40044000F4F9041E02D100F089F9040000F05AF90028FBD100F0E2F800F018F9200010BD70B50500012400280DD1084B1034DB68DB0708D5064E300000F035F83100040071
:40048000280000F085F8200070BDC046B0010020BC1C0000012307B500210B4A5B42D3600A4B1161586811750190187E012809D11A6900928A4205D0DA8A019B0098D979AE
:4004C00001F0D3FB07BDC046B0010020BC1C000010B500244A880B88CC809B1A0279934200DDCB8010BDF0B5002405002700836885B0029343680193037E03930A2666435D
:40050000029B9E19EB8A9C420BD2039A3100019800F0C1F8310007000198FFF7D9FF0134ECE7380005B0F0BDF7B5CB8A8C68019301234D680969019A561E019626D31A0059
:400540006E88AF79B4460240F61B002A01D13E006644E788BE4203D293420AD01A0002E0002A11D000220E78013EF6B20E70002E06D1984310430126002A00D1EE790E70EB
:400580005B000A340131D6E79843F7E7FEBD000070B50D4C05002318187D0B7E012B01D1FFF7C2FF1F22631918756B09043315409B001E3AAA40E158002802D191430A0075
:4005C00000E00A43E25070BDB001002010B50B4C38220021200001F048FB094B2000238086231B01638002230E2206491A30237601F032FB20233134237010BDB001002076
:40060000A6BEFFFFAC1C00000023024A9380024A13607047B0010020740100207047C9B28318062901D000211971520080180288428000221A72704710B50022FFF7EFFF54
:4006400010BD00001C235843054B10B51B189C681A7E0A234B431100E018FFF7EDFF10BDBC1C00001C2370B504004343064AD318DB8A5D1E002B05D029002000FFF7E2FF7B
:400680002B00F6E770BDC046BC1C000010B50020FFF7E8FF10BDF8B505000800038844881100A34205D26E79E21AB2421DD8002603E000261A1B067201362F79BA420ED851
:4006C000FF25294006291AD002792402144365431B02EB181A0A1B0C438002710FE06D79AA420CD2002EEBD009E0037A2A7A9A4202D90133037202E00022FFF790FF002078
:40070000F8BD0000024B9868802318407047C046B0010020084B10B59A6804001120D20309D41038002C06D1DB68034203D0200000F034FA200010BDB0010020064B10B575
:400740009C6880235B021C401120002C02D100F0AFF9200010BDC046B0010020084B10B59868802303401120002B08D11800FFF7D1FF002803D1034B1870FFF7DFFF10BD09
:40078000B0010020780100200B4B10B5196818690A689C7E82430A600721A140586802688A4311000622A2400A43996802600A685B699A430A6010BDD81C00007047000037
:4007C000064A074B01381A60064A000210601A68002AFCDB044A024B1A60704740000040000001400003014040FF0080064A074B01381A60064A000210601A68002AFCDB35
:40080000044A024B1A60704741000040000001400403014041FF008010B5002801D0012002E0552100F022FA10BD10B50020FFF7F3FF10BD73B500241C25074B1A689E7DFC
:400840000192B44207D228006043019B0134181800F074F9F5E773BDBC1C000001228A40084B013A197EC02351430203121A8A4205D3FF22504388429B415B429B01D8B28E
:400880007047C046B001002010B5044B5C6821886089FFF7E3FF207310BDC046BC1C00000F2070B50B4CF02223680B4D834319002B7803400B4393431A002B7883431343C8
:4008C0002360FFF7E1FFFFF75FFF00F015F8002070BDC04600FF284062F1FF0FC02210B5044C23689343034308002360FFF77EFF10BDC046C800002010B5FFF79BFF084A35
:40090000084B1A60084A094B11680B40C021C9000B431360064B1A68064B1A6010BDC046000200010800284000040240FFF0FFFFC80000200400284070B505000A4C00F03A
:40094000F4FF2268094B0A491A400A4B09681B78C9184E7AEB183604597A33000B431343236000F0E6FF70BD0800284000FF80FFE8010020F41C000010B5064B1A781C239D
:400980005343054AD3185B685989187BFFF7A6FF10BDC0467A010020BC1C0000012302889340024A013B1B0453607047C8000020F7B500F0BAFF1D4D1D4C2F0022681D4B8B
:4009C000019013432B601C4B187EFFF7F9FE1B4B1B4A1A601A68002AFCDB1A4A174B1A4D1A6027202E6800F097FF184B184A334013432B60E2230821164AFF33106808422E
:400A000002D1013B002BF9D12E602268124B112013433B6000F018FD6F2000F07DFF62680E4B01981A6000F084FFF7BD04002840C80000202008E881B001002000000140C7
:400A40004100004041FF00800800284000E8FFBFF0060040100028402018E8810C00284010B5044A044B91680B439360FFF7A0FF10BDC046B001002080000100F8B5040055
:400A8000077E857E00F051FF0F22BA40266807213368A94093431A000423BB406468134322688A432260336000F043FFF8BD0000F8B51C24124F134D3B78134E6343EB1817
:400AC0005868002333703A78317862430A334B43AA189268D3180D4A1360FFF72DFF3B783078634344435859094B00191860FFF7C5FF084800F030FCFFF7B2FFF8BDC0466C
:400B00007A010020BC1C000079010020E8010020EC010020911900001C2302005A434B43044910B55058C018034B1860FFF7A6FF10BDC046BC1C0000EC0100200F2270B57B
:400B40000168857E0400007E0B68824093430B6000F0EBFE0722AA4061680B6893431A000623AB4013430B6000F0E3FE0122607EA16882400B6893430B6070BD10B5054C90
:400B80002378012B05D1044B1868FFF7D7FF0023237010BD7B010020EC010020F8B51C242300070043430D4DFFB2EB185E68FFF7E5FF0B4B1F701A781B785443094A6159D8
:400BC00011607F22084988689043034330008B60FFF7E4FEFFF7D0FEF8BDC046BC1C00007A010020EC010020B001002070B51C2423004343104A114DD2180A23C9B22970D5
:400C0000297856684B439268D3180D4A1360FFF7C5FF3000FFF790FE28780A4B60431A6810181860FFF72AFF0122074B07481A7000F092FB70BDC046BC1C00007901002061
:400C4000E8010020EC0100207B01002039190000044A054B11680B40802189000B4313607047C04608002840FFFCFFFCF0B501251C24030089B0059028006343664A07910E
:400C8000D3185E683388984001384843642100F02BFF6B461A7D614B070061481A7000F05BFB00235F4A0195137003930294059B029D59495D434D196B7E5A4A0493049861
:400CC0001378984273D95548029C037800786343CB185B68117806938023C0B27372C9B2FFF784FF0824FFF7B3FF8025FFF7B8FE4D4B4E490A7A52B2002A02DA013B002B70
:400D0000F8D14B4B1B681B8804939F4202D9737AAB437372737A6D082B4373720698013CFFF70AFE002CE1D13E4A3C4B1B781078029A53435043384A9B5818183D4B18601B
:400D4000FFF7FCFE3C4B3D4A1C703D4B01341A60069B0A201B8864219C40013C604300F0C3FE0130874204D304993A1A0623914208D33818844200D90400049A002394422F
:400D800000D20633727A0198111C824201D269460979C9B20191264909684A72039A1A430392204A13780133DBB213707FE7019B0A2701335B087372002313701C4A146806
:400DC000184A04991078944681421AD91478AB687C431C19637A707A834209D3181A079BC0B258436421633000F07EFE607201E0002363720B4A13780133DBB21370012389
:400E0000DEE7002B01D00A4B1C60002362460398137009B0F0BDC046BC1C00007A010020391900007901002067660000B0010020E8010020EC0100207B0100200002000119
:400E4000080028408021054A10B5136809060B431360082000F0F8FA10BDC0460000244010B5054C2378002B03D100F00FF801232370FFF7E7FF10BD7C01002010B500F068
:400E800093F810BD10B500F099F810BD802210B500241B4B52001A601A4A1B4B1B491A601B4B1C4A082013601B4A14601B4A11601B4A13601B4B1C6000F0D0FA032108208C
:400EC00000F0A8FA1849082000F09CFA5222174BFF321C60164B1C60164B1A60164B503A1C60164BFF3A1C60154B1C60154B1A70154B1C70154B1C80154B1C8010BDC0461C
:400F00000000244000080040600024401000FE00070100800003244004032440100324400002244004022440D10F0000C80E2440880E2440480F2440080F2440C80F24400D
:400F4000880F2440F4010020F8010020F2010020F001002010B5082000F080FA1F21054B08201C781A78E4B28A431A7000F06CFA200010BDF801002070B506000D00141E3C
:400F80000BD0082000F06AFA044B08201C60044B1E80044B1D8000F057FA70BDFC01002000020020F601002010B500F0F7F90122014B1A6010BDC046880E2440002210B508
:400FC000024BFF201A6000F0DBF910BD880E2440F0B5A84B85B01B68002B00D09847A648A64904680B68A64D01930223FF332A8823400295844603912ED02024A1490B6813
:401000005B005B080B60A04B1878A04318701878103C204318709D480568254206D19C4C2488944206D01C78082501E002251C782C431C70974C984B25682B40236000234E
:40104000964C236003600220954B187080200B68000603430B6008E10199C90601D591490B600A230199194200D18DE08E4B1B685B0756D58A488D4B01781D6806000129C6
:401080000CD000291CD0022949D10121884B19608849EBB20B800023037040E0854E844B3088002809D01960834B01381968EBB289180B700132308031E0022119602EE02A
:4010C0007C4803881B022B437C4D2F88784DBB4223D201222A607A4A1288934201D2D11A89B20180072902D80122327011E0694A6A48082906D1A02511682D02294311600E
:40110000002205E080251168AD0129431160082202605F4A13801A0001E002232B60042130E05C4803689B042ED50221019B194008D0644B19681F2305680B405649294084
:40114000016007E05B4D2B88083B9BB22B80082B01D908230121584FD218D51A002B07D03E68013B7519514E3668F6B22E70F4E7002906D1802503682D022B430360474B45
:4011800019600C21504B196002230199194247D0E10613D50021414801603C4801603C4909888A4200D008333749234008780343202083430B700221394B197063062DD5D3
:4011C00020211020304A13780B431370304B1A883E4B1B68034211D08025384B35491B886D029B1A0B803A4B1968294319601D68384929401960254B186002E00421274B2D
:401200001960012160461025334B1960334B0360334803682B430360254B196063461C60039B1B685B0720D5FF20002484461F26214B20491F682B4D0B88002B08D0B81897
:401240000078013BC0B2286001329BB2012401E0604628602448006830400828EDD1002C00D00B801021214B1960029B1A8005B0F0BDC04680010020400F2440000E2440D8
:40128000F201002000002440F8010020880F2440F001002060002440FF5FFFFFC80F2440F4010020880E2440CC0F2440400324406C00244084010020FC010020000200208E
:4012C000F601002008032440C00F24406400244004022440FFFFFEFF800E2440FF0F0000480F24404002244008022440800F244010B5040000F019FB044AA40713689B006A
:401300009B081C43146000F014FB10BD04E400E010B58024044B1C60044BD8650320FFF7E7FF034B1C6010BD80E100E00000002000E100E010B5040000F0F7FA044A054BE3
:401340001168A4030B401C43146000F0F2FA10BD10E400E0FF3FFFFF10B58024054BA4021C60054B0833D8670320FFF7E3FF034B1C6010BD80E100E00000002000E100E01D
:40138000044A1368002BFCDB034B00021843014B186070470000014042000080034A1368002BFCDB024A014B1A6070470000014042000040024A034B11680B40136070475B
:4013C00000002240FFFFFFBF024B18684000C00F7047C0460000224070B5040000F0A5FAE104E024054DA4032B68054A21401A400B0013432B6000F09CFA70BD00010B40B2
:40140000FFFFC7FF024B8000C31818681960704740000020F8B5032605003540B5400F0004000635AE40AF4000F07FFAA408054BA400E4182368B3431F43276000F079FAEE
:40144000F8BDC04600E400E01F2318401E3B8340014A13607047C04600E100E01F2318401E3B8340014A13607047C04680E100E070B5802504002D02064BAC4205D95868AF
:4014800000F04AFA044BE418F6E79868604300F043FA70BDD00000200080FFFFF7B500F05DF900284FD000F040FA3F2700220400254E26483168135C39400500994201D162
:4014C000033203E001322E2AF4D12B3A1F2020490B68034204D10B688343133803430B6080261C491C4B0868F60118401B4B53439B19DB0B013B0343192A01D818480CE004
:4015000018481018AA180678107DA022801952031343FF2800D9FF2080050343124D0B602B683020019300F0B3FA80210F4AC905136814200B431360FFF79AFF019B200005
:401540002B6000F0F6F9F7BD2CFF0B40F51C000034FF0B400800224000F800C040420F000000D43FCDF1FF0F300010400000224030B587B0040000F0D8F90500FFF724FFD5
:401580000022904202D0FFF715FF0122104B1148196802AB02911049096803910F490C19033C217804910E49096805910D490091694601930C4B19600C4908601B68012AB8
:4015C00001D1FFF76BFF280000F0B3F907B030BD08010B401700008000010B40F51C000030001040B6EA0000080010400400104010B5034B1B7B584300F08EF910BDC046AF
:40160000D000002010B500F090F90421034A13688B43136030BF00F08CF910BD10ED00E037B500F082F904210D4A0E4D136804005B005B0813600C4B0C4A1B8802209BB2A3
:4016400013600B4A13680B4313602B680193FFF7C3FE30BF019B20002B6000F06AF937BD00000B4000010B4052F1FF0F0C000B4010ED00E02C4BF7B51A682C4B050013407B
:4016800080220E005200112093424BD1284B1A68284B9A4246D12B00274A643B934241D800293FD0254B26495A681F00002A32D00B680A38002B35DA224B0A301A68002A1C
:4016C00030D02149214A8D420CD9116818684843890A00F009FA1E494409280000F004FA604314E064201B6868430193194B1A49C018146800F0F8F905000198A10A6043C8
:4017000000F0F2F9FA216843C90100F0EDF930600020786006E00D4A07201268920A0A6001225A60FEBDC04610010B403F3F0000080003400A0B00009C276BEE880100205F
:40174000180003401C00034060D10000E0000020187900000D030000350C0000014B1868C00F70470000224010B500F0DEF8C021034A090213680B43136000F0DAF810BD59
:4017800000010B4010B5802400F0CFF80749084B0A68E4011A4022430A600A6813408022120213430B6000F0C4F810BD00010B40FF3FFFFF0300044ADB0010680133D8406D
:4017C000012318407047C04610020B4070B505000C00FFF7EFFF00280AD103210800ED00A8402140A940034A136883431943116070BDC0460C020B4070B504000D00FFF7D8
:40180000D9FF00280BD10123E4000234A340044A116899430B002900A1401943116070BD0C020B400C4B1A6802431A60C20703D5022219681142FCD0C20504D580229200CF
:4018400019681142FCD0C20304D58022920219681142FCD07047C04610020B4070B50E4D06002B680C009B0FC920002B00D06C38FFF7BEFE0949300181408440084A432074
:4018800013688B431C4314602B689B0F00D02438FFF7AEFE70BDC0460C020B40FFFF000008020B4070B5050000F03FF80E4B04001A68C0231B02134011D10C480C490540CF
:4018C00028000E680B4A3240104308600A68012B01D1FFF749FF200000F02BF870BDFFF751FF0123E9E7C04600010B400404040010020B40FBFBFBFF044B054A1968104066
:401900000843186019681142FCD1704710020B4008080800000000000230800803D00138FDD1C046C046C0467047EFF3108072B6704780F31088704701220C4B1A600C4B5C
:4019400019680C4B1A680C4B1B785B0099520B4B0B4A1B6813430B4A13600B4BDA8899680132DA80094A0A409A607047140028400C002840E8010020F41C0000C80000200C
:401980002008E00104002840B00100207FFFFEFFF8B51C24304B314A1B78314D63439B58012228782F4F604318182F4B39681A602E4B2F4E1A682F4B1B785B005A5232680A
:4019C0002D4B13432D4A1360FFF7B8F8224B224A1B781278214862438218927D2978013ADBB28A421DD96343C31858682B780133DBB22B70184B1B782A785C43174B1C19A3
:401A00000A235343A268D3183B60FEF795FF124B18782978C0B2C9B2FFF77EF8FEF7C8FF18E00023164A2B709168164B0B40164993600978012902D1FEF7C0FE0AE0316866
:401A4000124801430D48016080218B439360D3880133D380F8BDC0467A010020BC1C000079010020E8010020140028400C002840C8000020F41C00002008E8810400284018
:401A8000B0010020FFFFFEFF780100202008E00110B50400FFF749FF102C04D803210C4A13688B430FE0202C05D80321084A13688B43023906E0302C06D80321044A1368B7
:401AC0008B4301390B431360FFF733FF10BDC0463000104002B4714649084900095C49008E4402BC7047C046002243088B4274D303098B425FD3030A8B4244D3030B8B4248
:401B000028D3030C8B420DD3FF22090212BA030C8B4202D31212090265D0030B8B4219D300E0090AC30B8B4201D3CB03C01A5241830B8B4201D38B03C01A5241430B8B4238
:401B400001D34B03C01A5241030B8B4201D30B03C01A5241C30A8B4201D3CB02C01A5241830A8B4201D38B02C01A5241430A8B4201D34B02C01A5241030A8B4201D30B0279
:401B8000C01A5241CDD2C3098B4201D3CB01C01A524183098B4201D38B01C01A524143098B4201D34B01C01A524103098B4201D30B01C01A5241C3088B4201D3CB00C01A70
:401BC000524183088B4201D38B00C01A524143088B4201D34B00C01A5241411A00D20146524110467047FFE701B5002000F006F802BDC0460029F7D076E770477047C04646
:401C0000014B18687047C046440100200E4B70B500251E000D4CE41AA410A54204D0AB00F35898470135F8E700F088F8084B00251E00084CE41AA410A54204D0AB00F35888
:401C400098470135F8E770BD481D0000481D0000481D0000501D0000002310B59A4203D0CC5CC4540133F9E710BD03008218934202D019700133FAE7704700000000000056
:401C800004300F4001310F4001330F4003420F4002430F4038803E4058045F011801B4016C407008DC03B448EC0800000E001000080802031E20080000000000D81C000055
:401CC000CA010020D8010020000000007101002001000100010100000004024008040440000404400404044000000F001000000010040C0000030405060708090A0B0C0EA8
:401D00000F101112131415161718191B1C1D1E1F2021222325262728292A2B2E2F303132333435EEDBC9B9AA9B8E82766B60564D443B332C241D17100A044300F8B5C0463E
:401D4000F8BC08BC9E467047BD010000C9030000F8B5C046F8BC08BC9E46704795010000701D0000C000002088000000C000000000000000001900000008C0010000FF0FC5
:401D8000010000000000E02EC05D00001800000000366E0100000000000000000000000000000000000000000000000000000000000000003A1D00000000000000000000E3
:401DC00000000000000000000000000000000000000000000000000000000000000000000000000000000000000000000000000000000000E40000200000000000000000DF
:401E000000000000000000000000000000000000000000000000000000000000000000000000000000000000000000000000000000000000000000000000000000000000A2
:401E40000000000000000000000000000000000000000000000000000000000000000000000000000000000000000000000000000000000000000000000000000000000062
:401E80000000000000000000000000000000000000000000000000000000000000000000000000000000000000000000000000000000000000000000000000000000000022
:401EC00000000000000000000000000000000000000000000000000000000000000000000000000000000000000000000000000000000000000000000000000000000000E2
:020000040001F9
:0200000490303A
:02000000598025
:0200000490402A
:4000000000000000000000000000000000000000000000000000000000000000000000000000000000000000000000000000000000000000000000000000000000000000C0
:400040000000000000000000000000000000000000000000000000000000000000000000000000000000000000000000000000000000000000000000000000000000000080
:0200000490501A
:0C0000000002112D11A1000011366B212F
:0200000490600A
:0100000001FE
:00000001FF