:400000000040002011000000790400007904000010B500F039FAC04610B51C4C12232360182001F0E9FC1A4A1A4B1A60FE221202194B1A60194B1A4919601A490A601A4AAE
:400040001A60F0210901194A1160194A1A6080218900184A1160184A1A6080221206174B1A600023164A1360C139FF39154A11600131154A11600231144A11600139144A37
:400080001160144A13601133236010BD300010400600008004010B40000301400000014040FF00800403014041FF00800C03014043FF00800803014042FF008008010B4055
:4000C00000010B401C010140180101400C010140080101400C020B4010B572B600240FE025486200131959000B00411889881A5AC31858880004104300F084F90134E4B284
:40010000012CEDD91C4801000C31303000F060F999231B04194A1360EE21194A1160002218490A6018490A60184A136018490B783C22934314221343DBB20B70154A1178CC
:4001400016230B43DBB213702023134A1360C4218902124A1160124A13600322114B1A602132114B1A60114B103A1A60FFF754FF00F06EF910BDC04690210000000002401F
:4001800000040240000302400803044000500F4001700F4000700F4000000440080004401800044000040440080404401804044010B5064C2378002B07D1054B002B02D061
:4001C000044800E000BF0123237010BD48010020000000008C210000084B10B5002B03D00749084800E000BF07480368002B00D110BD064B002BFBD09847F9E7000000009C
:400200004C0100208C210000C00000200000000010B5042001F0C0FD0122014B1A7010BD6401002010B501F0F8FD084B586001F073F8830605D401F003F801F035FC01F06F
:4002400003F8024B187901F0ECFD10BD6401002000B583B000230193074B18684009FA239B00584301A901F055FC002802D1024B019A1A6003B000BDC400002070B513484F
:4002800001F052FA124CF0239B002360FFF7E0FF2368104DAB60C8235B012360FFF7D8FF2368EB60A968002001F04CFD0121002001F0F4FC0121002001F00CFD082001F05A
:4002C00091FD012001F020FD70BDC04611020000C40000206401002070B562B600F0A0FF384A3821382001F029F800F02BF90021002000F03DFEFFF7C1FF002601250124DA
:4003000005E00026042402E0042400E00424022C10D002D8012C05D050E0032C1BD0042C41D04BE000F028FB0028F0D100F046FD0224ECE701F071FD234B586000F01CFB24
:40034000002802D001F0A2FB00E003241E4B187901F067FDDBE7002000F00CF9012D12D1002000F017FA0028CBD10136B6B2952ECAD9154BDA68154B1A60196801F0E2FC01
:4003800000250424C3E7002000F004FA0028BDD00D4B9A680D4B1A601968002001F0D2FC01250124B3E7FFF73DFF074B1B78002BADD00022044B1A700124A8E7002001F093
:4003C00051FAA4E7B801002064010020C4000020F0B50025002711E0BB00C658F3B2FF22964308E06A008A181478A419527822700135013BDBB2002BF4D10137032FEBD9D5
:40040000F0BDC04610B50A00002101F0B6FE10BD0C4B1B68002803D080221206134301E05B005B08074A1360074B1B68002803D080229204134301E0044A1340024A1360C0
:400440007047C04680033A4008010B40FFFFFFFD10B50323054A1360054A13600022054B1A600120FFF7D4FF10BDC0463000304030003140000E3F4010B501F049FE036826
:400480000C2B00D1FEE7FEE770B50F4E0F4D13E029686B68AC68002202E001C901C30432A242FAD1E868002202E0002102C304328242FAD11035013E002EE9D101F02EFE22
:4004C000FFF70AFFFEE7C046010000009022000010B50E4A136801218B43136000230AE0032B03D89A000A49505800E009489900094A885001332F2BF2D9FFF7EDFD034A3E
:40050000116801230B43136010BDC0460000104000000000790400000000002010B5084B1B78002B06D100F003F900F045F90122034B1A7000F048F800F040FB10BDC046AD
:400540007401002010B5FFF7E9FF041E02D100F0C9FA0400002C02D100F046FA040000F00BFA0028FBD100F031F900F085F9200010BDC04670B5051E01D1002400E00124BD
:40058000002C0BD16B0902339B000D4AD3185B681F222A40D340DB0700D41134002C0CD1EB005B1B9E00074BF618300000F046F804003100280000F091F8200070BDC04642
:4005C000B8010020D421000070B500230BE01348191D890000220A509A1C920082180121494251600133002BF1D00D4C012310E06668227E094B5B1900211975012A06D1B0
:400600002069002803D0F179E28A01F0B6FD1C342B005D1E002BEBD170BDC046B8010020D421000030B50B884A889C1A0025CD800079844200DDCC8030BDC046F0B583B039
:40064000070084684568037E01930026002300930BE0019A2100280000F024F9009021002800FFF7DFFF0A340136FB8A9E42F0D3009803B0F0BDC046F0B5CA8A8D684F6820
:400680000B69012125E00C00044003D17E88BA79B21802E07A88BE79921BEE88B24201D3002200E00A00A24202D01E78013E1E70A24202D01C78002C07D188431043002AB7
:4006C00001D1FA7900E001221A7049000A3501336246541EA446002AD5D1F0BD70B504000A7E124B1B181D7D012A04D12800FFF7C3FF050002E0002001F0B4F80B4B1B1902
:400700001D7563091F2214401E3AA240002D06D1064904339B0058589043585005E0034904339B00585802435A5070BDB801002070B5154D38220021280001F01EFD134B60
:400740002B8086231B016B8002232B76104C28001A30210020310E2201F006FD2200043401230CE0A168E38A04E013784B7201320A310300581E002BF7D11C342B005D1E18
:40078000002BEFD170BDC046B8010020A6BEFFFFD021000000280AD11F23034001229A404009031D9B0003495858104000E000207047C046B80100200023024A9380024AB6
:4007C00013607047B80100207C01002001230BE0CA00521A9300064AD318DB8A00E013005A1E002BFBD10B00591E002BF0D17047D4210000FF231940062902D0831800212D
:4008000019715300195AC31859808218002313727047C04670B50D4DC3001C1AA200AA1894688A0051184A00A418181A8300EB181E7E012305E02A0031002000FFF7DAFF3D
:400840002B005D1E002BF6D170BDC046D421000070B50500C200121A9300064AD318DB8A04E021002800FFF7D5FF23005C1E002BF7D170BDD421000010B5012303E02000D8
:40088000FFF7E6FF23005C1E002BF8D110BDC0469840504380235B009A1A51434018000A7047C046F0B5474680B482B007000E00019201233EE06300985BF318598888429B
:4008C00005D3431A321900251572012201E00B1A0022002A11D17D79AB420ED933191B7A3A7A934205D3220001993000FFF782FF1FE03219013313721BE03D79AB4204D988
:400900007D79AB4215D2002A13D1FF23019A1340062B0ED00902331998461B79194308230122FFF7B5FF020A6300F3185A804346187123005C1E002BBDD1002002B004BC55
:400940009046F0BD30B5084803680F24A3431900064D2B780F2213400B43E13293432A78A2431343036030BD00FF284062F1FF0F10B5FFF7E7FF10BD024B9B6880201840C6
:400980007047C046B801002010B50F4B9B68DB030ED400280ED1430902339B000A4AD3185B681F220240D340DB0705D4012404E0112402E0012400E00024002C01D100F012
:4009C000ABFA200010BDC046B801002010B5054B9B68DB0303D400F019FA002000E0112010BDC046B801002010B50C4B9B681B0612D40024012040420BE02000FFF7C4FF28
:400A0000002805D10022064B1A70FFF7DFFF04E00134002CF1D000E0112010BDB80100208001002030B500210D4B16E0186802681C69A24302605C6822689D7E0720A84007
:400A4000824310000622AA4002432260986802685C69A24302601C3301310029E6D030BD002200007047C046074A084B1A6001380002074B1860054B1B68002BFBDB054AE0
:400A8000024B1A607047C04640000040000001400003014040FF0080074A084B1A6001380002074B1860054B1B68002BFBDB054A024B1A607047C046410000400000014062
:400AC0000403014041FF008010B5031E01D1002000E00120002803D15521180000F004FB10BDC04670B50024002504E02000FFF7EBFF05430134002CF8D0280070BDC046AB
:400B000070B5002516E0EB005B1B9A000B4BD658002406E0E3001B1B9800301800F0CAF90134EA00521B9300044AD3189B7D9C42F0D30135002DE6D070BDC046D4210000EE
:400B4000C300181A8300024AD3185B6858897047D421000010B50A4B1C7E0203121A01238B40013B63439A4205D30202101A834203D9402002E0C02000E00020C0B210BDDC
:400B8000B801002010B50C00FFF7DAFF2188FFF7E1FF207310BDC04610B5002409E0E200121B9300044AD31859682000FFF7EAFF0134002CF3D010BDD421000010B5FFF7C9
:400BC000D7FEFFF7E9FFFFF72DFF00F043F8002010BDC046014A024B1A6070470002000108002840014A024B1A607047000200010800284070B50E001500038801249C40B6
:400C0000013CA3001B195800642101F0F5F9013083199C4200D22300B04201D8301A00E00020A84203D8AB4203D2062002E0062000E0002070BDC04610B5054AC0231468D4
:400C40009C43204310600800FFF726FF10BDC046C800002010B5FFF753FFFFF7BBFF064A1168064B0B40C021C9000B431360044B1A68044B1A6010BD00040240FFF0FFFFBD
:400C8000C80000200400284070B50930040001F0C4F8094D2968094B1940094B1A78A35C084C2468A218527A120413430B432B6001F0B7F870BDC0460800284000FF80FFEC
:400CC0001C220000F001002010B5074B1A78D2B2D3009A1A9300054AD3185B685989187BFFF7AAFF10BDC04682010020D4210000028801239340013B1B04014A5360704751
:400D0000C800002070B501F088F804001E4B1B681E4A13431E4A13601E4B187EFFF7A4FE1D4A1E4B1A601D4B1B68002BFBDB1C4A1A4B1A601B4E3568272001F065F81A4B9A
:400D40002B401A4A13433360F0235B0000E0013B174A1268120701D4002BF8D1114B1D60094D144B2A681343094A1360112000F065FD6F2001F048F86A680F4B1A6020002F
:400D800001F04FF870BDC046C80000202008E88104002840B8010020410000400000014041FF00800800284000E8FFBFF0060040100028402018E8810C00284010B5044A9C
:400DC000044B91680B439360FFF79CFF10BDC046B80100208000010070B50400857E067E01F01BF823681B680F22B24093431A000423B3401343666832680721A9408A4321
:400E000032602268136001F00CF870BD70B5194E3278D2B2184DD3009A1A9300EB185868164C002323703278D2B2D3009A1A9300EB1899682378DBB29A00D3185A008A18F8
:400E40000F4B1A60FFF720FF3378DBB2DA00D31A9A0050592278D2B2D3009A1A9300C018084B1860FFF7B8FF074800F093FCFFF7A5FF70BD82010020D421000081010020F0
:400E8000F0010020F4010020811E000010B5C300181A8300054A9858CB00591A8B00C018034B1860FFF798FF10BDC046D4210000F401002070B50400007EA57E21680B685A
:400EC0000F22824093430B6000F0A7FF61680B680722AA4093431A000623AB4013430B6000F09FFFA1680B68607E0122824093430B6070BD10B5064B1B78012B06D1054BDD
:400F00001868FFF7D7FF0022014B1A7010BDC04683010020F401002070B50400104EC200121A9300F3185D68FFF7E4FFE4B20D490C700B78DBB2DA00D31A9A0092590A4B17
:400F40001A600A4A7F23906898430300906009780B4393602800FFF7CBFEFFF7B5FE70BDD421000082010020F4010020B801002070B5C200121A9300134AD3185D68C9B208
:400F8000124C217099682378DBB29A00D3185A008A180F4B1A60FFF7BFFF2800FFF774FE2378DBB20B49DA00D31A98000B689C4660440860FFF710FF0122074B1A700748F1
:400FC00000F0E8FB70BDC046D421000081010020F0010020F401002083010020291E0000044A1168044B0B40802189000B4313607047C04608002840FFFCFFFCF0B54746A2
:4010000080B482B007000E0090462F490A78D2B2D3009A1A93002D4AD3185B680193802333700878C0B22A4B1978C9B2FFF7A0FFFFF7D6FF8025FFF7C1FE264A00E0013A10
:40104000254B1B7A5BB2002B01DA002AF7D1234B1B681C88BC4202D23378AB4333706D0833782B4333700198FFF70EFE002DE2D1154B1B78DAB2D3009B1A9A00134BD058F0
:40108000134B1A78D2B2D3009A1A9300C018144B1860FFF70FFF0022124B1A70FFF7A2FD220039000198FFF7A5FD43461A7833789A4201D242461370084B1B6832785A72F9
:4010C00002B004BC9046F0BD82010020D42100008101002066660000B8010020F0010020F401002083010020F0B54F4680B484B004008946C200121A9300394AD3185F6827
:40110000012003AB18703B88984001384843642100F072FF0190E2B2324B1A70324800F039FB3E0009360022304B1A7000250AE003AA31000198FFF761FF05432B4A137881
:401140000133DBB21370E200121B9300244AD3185A7E264B1B78DBB29A42E9D803AB1B7801335B087B720022204B1A7024E0E200121B93001A4AD3189E681C4B1B78DBB2CC
:401180009A00D3185A00B618194B1E60737A787A83420AD31B1AD8B270724B4658436330642100F029FF707201E0002373720F4A13780133DBB21370E200121B9300084A3B
:4011C000D3185A7E094B1B78DBB29A42CFD80022064B1A70280004B004BC9146F0BDC046D421000082010020291E000081010020F001002010B5082000F020FB10BDC046B5
:4012000010B500F025F810BD10B5044A1368802109060B431360FFF7EDFF10BD0000244010B5064B1B78002B04D1FFF7E9FF0122024B1A70FFF7E8FF10BDC0468401002027
:4012400010B500F093F810BD10B500F099F810BD10B5802252001B4B1A601B4A1B4B1A601B4B1C4A136000241B4A14601B491C4A11601C4A13601C4B1C60082000F0E8FA43
:401280000321082000F002FB1849082000F0ECFA174B1C60174B1C605222FF32164B1A60164B1C60164B1C60164B1C60503AFF3A154B1A70154B1C70154B1C80154B1C8032
:4012C00010BDC0460000244000080040600024400701008000032440040324401000FE0010032440000224400402244095130000C80E2440880E2440480F2440080F2440EA
:40130000C80F2440880F2440FC01002000020020FA010020F801002010B5082000F098FA054B1C78E4B21A781F218A431A70082000F084FA200010BD0002002070B5060022
:401340000D00141E0BD0082000F082FA044B1C60044B1E80044B1D80082000F06FFA70BD0402002008020020FE01002010B500F02DFA0122014B1A6010BDC046880E24406C
:4013800010B50022024B1A60FF2000F011FA10BD880E244070B5B44B1B68002B00D09847B24B1C88B24B1D68B24B1E680223FF331D4239D0B04A13685B005B081360AF4A19
:4013C000137820218B431370117810230B43DBB21370AB4B1B68DB060CD4A44B1A88A94B1B889A420CD0A54A117808230B43DBB2137005E0A14A117802230B43DBB21370BF
:40140000A14A1168A14B0B4013600023A04A13609B4A136002229F4B1A70974A1368802109060B4313601BE1F30602D500229A4B1A600A23334200D1A3E0984B1B685B0756
:4014400069D5974B1A68934B1B78012B04D0002B22D0022B16D057E0924B1B88002B0DD00121914B1960914B1B681B19D2B21A7001348C4A1388013B138048E002228A4BBC
:401480001A6044E00121884B1960D2B2854B1A800022804B1A703AE0824B1B881B021A43834B1B889A422BD201217F4B1960814B1B889A4202D29B1A9BB200E00023794922
:4014C0000B80072B03D80121724B197014E0082B09D16D490B68A020000203430B6000216B4B196008E068490B688020800103430B600821664B1960624B1A80140006E08D
:401500000222694B1A6002E0002000F0ABF90422694B1A6035E05C4B1B689B0431D5B3070DD5664B1B681F211940574A1068574B03401360012014E00821012011E0594BBD
:401540001988083989B219800829F5D8002008E0564B1B681B19524A1268D2B21A70013401390029F4D1002808D1474A1368802109020B4313600022454B1A600C224E4B69
:401580001A60B3074BD5EB0615D50023404A13603B4A13603B4B1B889C4201D1022300E00A232B40354A11780B4320218B4313700222384B1A706B062FD5304A117820239A
:4015C0000B43DBB213702F4B1B881C003C4A1268D20612D5364A1288D31A324A1380394B1A68802149020A431A601968364A0A401A601022224B1A6002E00422244B1A60F7
:401600000122324B1A603249194B196031490868102303430B60244B1A60154B1D60154B1B685B071CD51F4B1B88002B0CD01F4B1B681B191B78DBB2274A13600134194A9D
:401640001388013B138002E0FF22234B1A60234B1B681F221340082BE5D10F3A204B1A60024B1C8070BDC04688010020FA010020400F2440000E24400000244000020020EE
:40168000880F2440F801002060002440FF5FFFFFC80F2440FC010020880E2440CC0F2440400324408C0100206C0024400402002008020020FE010020C00F24400803244030
:4016C0006400244004022440FFFFFEFF800E2440FF0F0000480F24404002244008022440800F2440014BD8657047C0460000002010B5040000F091FB044A13689B009B0849
:40170000A4071C43146000F08CFB10BD04E400E08022014B1A60704700E100E08022014B1A60704780E100E010B50400FFF7F6FF2000FFF7D7FF0320FFF7DAFFFFF7E8FF70
:4017400010BDC0468423014AD05070470000002010B5040000F061FB044A1168044B0B40A4031C43146000F05CFB10BD10E400E0FF3FFFFF80229202014B1A607047C046E0
:4017800000E100E080229202014B1A607047C04680E100E010B50400FFF7F4FF2000FFF7D1FF0320FFF7D4FFFFF7E4FF10BDC046044B1B68002BFBDB0002034B1843014B74
:4017C000186070470000014042000080034B1B68002BFBDB024A014B1A6070470000014042000040024A1168024B0B401360704700002240FFFFFFBF034B18688023DB0563
:40180000184000D0012070470000224010B5040000F003FBE304E022920313401900054C2368054A1A400B001343236000F0F9FA10BDC04600010B40FFFFC7FF1F231840DC
:401840001E3B8340014A13607047C04600E100E01F2318401E3B8340014A13607047C04680E100E001BE704770B504000D001F2802D90020FFF7F6FF1034A40080239B059A
:401880009C4664442068256070BDC04670B504000E00032902D90020FFF7E4FF1F2C02D90020FFF7DFFF03252540ED00063500F0B4FAA408A400074B9C46644421680323DF
:4018C000AB4099430B003100A9401943216000F0A8FA70BD00E400E010B5040006E0084B586800F091FA074B9C46644480231B029C42F4D8024B9868604300F085FA10BDED
:40190000D00000200080FFFF30B583B000F084F900285AD000F081FA040000230AE02C4A12683F210A402B49C95C8A4201D1033303E001332D2BF2D90323274A1268D206BC
:4019400006D1254802681F218A4313390A430260224A1168224A0A40224959438020C00184466144C90B01394905490D0A43A021490311430800192B02D81B4B1A430EE008
:401980001A4A9A1812781A3B1249C9183023CB5CD318FF2B00D9FF239B0502001A430F4B1A60134D2B680193302000F0FBFA114A13688021C9050B4313601420FFF78CFF22
:4019C000019B2B60200000F02CFA03B030BDC0462CFF0B402022000034FF0B400800224000F800C040420F000000D43FCDF1FF0F300010400000224030B587B0040000F02A
:401A00000CFA0500FFF7F8FE002803D0FFF7EAFE012100E00021104B1B6800930F4B1B680193033C0E4B1B5D02930E4B1B68039304AA0D4B04936B4605930C4B1A600C48AF
:401A40000C4A10601B68012901D1FFF75DFF280000F0E7F907B030BD08010B4000010B402022000030001040B6EA000008001040170000800400104010B5034B1B7B5843AA
:401A800000F0C2F910BDC046D000002010B500F0C4F9044A136804218B43136030BF00F0C0F910BD10ED00E030B583B000F0B5F904000E4A13685B005B0813600C4B1B881D
:401AC0009BB20C4A13600C4A116804230B4313600A4D2B6801930220FFF798FE30BF019B2B60200000F09DF903B030BD00000B4052F1FF0F0C000B4010ED00E000010B4075
:401B0000034B1868C0231B02184000D00120704700010B4070B504000D00324B1A68324B13408022520093424ED1304B1A68304B9A424BD12F4B98424AD863284AD90029E1
:401B40004AD02D4B5B68002B34D02C4B1B68002B44DA2B4B1B68002B42D02A4B98420ED9274B1868284B19684843890A00F044FA46092649200000F03FFA704315E06420CD
:401B80006043234B9C466044224900F035FA04001B4B18681C4B19684843890A00F02CFA6043FA21C90100F027FA28600020124B586016E0144B1B689B0A104A136001223B
:401BC0000D4B5A6007200CE011200AE0112008E0112006E0112004E0112002E0072000E0112070BD10010B403F3F0000080003400A0B000000286BEE900100201800034021
:401C00001C00034060D10000E0000020187900000D030000350C0000034B1B68002B01DA012000E0002070470000224010B500F0F4F8044A1368C02109020B43136000F01A
:401C4000F0F810BD00010B4010B500F0E6F808490A68084B1A408024E40122430A600A6813408022120213430B6000F0DAF810BD00010B40FF3FFFFF10B50400022802D9E7
:401C80000020FFF7EFFD044B1868E4000134E0400123184010BDC04610020B4070B504000D00022802D90020FFF7DCFD2000FFF7E3FF00280AD1064A1368E400032108006E
:401CC000A04083430D40A5401D43156070BDC0460C020B4070B504000D00012802D90020FFF7C0FD2000FFF7C7FF002809D105490B68E40002340122A2409343A5401D43C5
:401D00000D6070BD0C020B4010B504000C4A136803431360C30704D50020FFF7ADFF0028FAD0E30504D50120FFF7A6FF0028FAD0E30304D50220FFF79FFF0028FAD010BD63
:401D400010020B4070B505000C00012802D90020FFF788FD0D4B1B689B0F01D1C92000E05D20FFF789FE0A490B682D01094AAA409343AC401C430C60044B1B689B0F01D10B
:401D8000432000E01F20FFF777FE70BD0C020B4008020B40FFFF000070B5050000F03DF80400FFF7ADFE002803D0FFF74DFF012100E0002108482840084A1568084B2B40C4
:401DC000184310601368012901D1FFF72FFF200000F027F870BDC0460404040010020B40FBFBFBFF054A1168054B184008431060024B1A68024B1A42FAD1704710020B4040
:401E000008080800000000000230800803D00138FDD1C046C046C0467047EFF3108072B6704780F31088704701220C4B1A600C4B1A680C4B1B780C4909685B00D1520B4BC9
:401E40001B680B4A13430B4A13600B4BDA880132DA800A4A99680A409A60704714002840F00100201C2200000C002840C80000202008E00104002840B80100207FFFFEFFE7
:401E800070B53A4E3378DBB2394DDA00D31A9A005159384C2378DBB2DA00D31A980008180122354B1A60354B1A68354B1B78354909685B00D152344B1B68344A1343344A8E
:401EC0001360FEF7F7FF3278D2B2D3009A1A9300EB1858683278D2B2D3009A1A9300EB189A7D013A2378DBB29A4220D9214C23780133DBB223701D4D2A78D2B2D3009A1A6C
:401F000093001B4AD31899682378DBB29A00D3185A008A18194B1A60FEF7B6FE2878C0B22178C9B2FEF7B2FFFEF7ECFE1CE00022104B1A70174A184B91680B409360174B82
:401F40001B78012B02D1FEF78DFD0DE00E4B1B68134A13430E4A13600E4B8022996891439960DA880132DA8070BDC04682010020D42100008101002014002840F001002057
:401F80001C2200000C002840C80000202008E88104002840B8010020FFFFFEFF800100202008E00170B50400FFF737FF0500102C05D8104A136803218B43136016E0202C1D
:401FC00007D80C490B6803229343023A13430B600CE0302C07D807490B6803229343013A13430B6002E00020FFF73CFC2800FFF718FF70BD30001040002243088B4274D3CE
:4020000003098B425FD3030A8B4244D3030B8B4228D3030C8B420DD3FF22090212BA030C8B4202D31212090265D0030B8B4219D300E0090AC30B8B4201D3CB03C01A5241A1
:40204000830B8B4201D38B03C01A5241430B8B4201D34B03C01A5241030B8B4201D30B03C01A5241C30A8B4201D3CB02C01A5241830A8B4201D38B02C01A5241430A8B4278
:4020800001D34B02C01A5241030A8B4201D30B02C01A5241CDD2C3098B4201D3CB01C01A524183098B4201D38B01C01A524143098B4201D34B01C01A524103098B4201D3AC
:4020C0000B01C01A5241C3088B4201D3CB00C01A524183088B4201D38B00C01A524143088B4201D34B00C01A5241411A00D20146524110467047FFE701B5002000F006F83D
:4021000002BDC0460029F7D076E770477047C046014B18687047C046440100200E4B70B500251E000D4CE41AA410A54204D0AB00F35898470135F8E700F098F8084B0025C2
:402140001E00084CE41AA410A54204D0AB00F35898470135F8E770BD78220000782200007822000080220000002310B59A4203D0CC5CC4540133F9E710BD030082189342CF
:4021800002D019700133FAE7704700000000000000300F40000400400F40000438223E1158045F011C401D2089208C4070017410DC0388108C019402A410E002E401000065
:4021C00004320F4004330F4003420F4006430F402000000000220000D2010020E00100200000000078010020010001000101000009001000080802031E2008000000000061
:402200000004024008040440000404400404044000000F001000000010040C0000000000030405060708090A0B0C0E0F101112131415161718191B1C1D1E1F2021222325C4
:40224000262728292A2B2E2F3031323334350000EEDBC9B9AA9B8E82766B60564D443B332C241D17100A044300000000F8B5C046F8BC08BC9E467047D9010000D10400004F
:40228000F8B5C046F8BC08BC9E467047B1010000A0220000C000002088000000C800000000000000C00300000008C0010000FF0F010000000000E02EC05D000018000000D6
:4022C00000366E01000000000000000000000000000000000000000000000000000000000000000067220000000000000000000000000000000000000000000000000000B0
:40230000000000000000000000000000000000000000000000000000000000000000000000000000E400002000000000000000000000000000000000000000000000000099
:40234000000000000000000000000000000000000000000000000000000000000000000000000000000000000000000000000000000000000000000000000000000000005D
:40238000000000000000000000000000000000000000000000000000000000000000000000000000000000000000000000000000000000000000000000000000000000001D
:4023C00000000000000000000000000000000000000000000000000000000000000000000000000000000000000000000000000000000000000000000000000000000000DD
:40240000000000000000000000000000000000000000000000000000000000000000000000000000000000000000000000000000000000000000000000000000000000009C
:020000040001F9
:0200000490303A
:0200000032DCF0
:0200000490402A
:4000000000000000000000000000000000000000000000000000000000000000000000000000000000000000000000000000000000000000000000000000000000000000C0
:400040000000000000000000000000000000000000000000000000000000000000000000000000000000000000000000000000000000000000000000000000000000000080
:0200000490501A
:0C0000000002112D11A100001138447DF8
:0200000490600A
:0100000001FE
:00000001FF